https://chain.so/tx/BTCTEST/b90d51d9e2acd91b0a0ad61f0729694699bff73239452392a70efc4d5b9958f8

output 0 [scriptPubkey] : OP_DUP OP_HASH160 ecebae831bbfbd7827542a82da4dc136e1288f71 OP_EQUALVERIFY OP_CHECKSIG
input  0 [scriptSig]    : 3045022100d63f1876269af1331987536413267dd33678dd4a8a17fd30014d89c2d3fe5f3f02201c43c2463fb8528415646c7f09c248c15ba6c1fc0582adac454d9edb3b4e26e801 
                          02d7c9e36a4d31039d4b94a43246a4a5f0767f2f55ef9a359901c82c41fb1e4bff

decoderawtransaction
0200000001f858995b4dfc0ea79223453932f7bf99466929071fd60a0a1bd9ace2d9510db9000000006b483045022100d63f1876269af1331987536413267dd33678dd4a8a17fd30014d89c2d3fe5f3f02201c43c2463fb8528415646c7f09c248c15ba6c1fc0582adac454d9edb3b4e26e8012102d7c9e36a4d31039d4b94a43246a4a5f0767f2f55ef9a359901c82c41fb1e4bffffffffff01707dbf07000000001976a914ecebae831bbfbd7827542a82da4dc136e1288f7188ac00000000

{
  "txid": "545dd560ce4cbea0ffac9a30c26a7f4beef90a8f438377434651bfc4ddb5d210",
  "hash": "545dd560ce4cbea0ffac9a30c26a7f4beef90a8f438377434651bfc4ddb5d210",
  "version": 2,
  "size": 192,
  "vsize": 192,
  "weight": 768,
  "locktime": 0,
  "vin": [
    {
      "txid": "b90d51d9e2acd91b0a0ad61f0729694699bff73239452392a70efc4d5b9958f8",
      "vout": 0,
      "scriptSig": {
        "asm": "3045022100d63f1876269af1331987536413267dd33678dd4a8a17fd30014d89c2d3fe5f3f02201c43c2463fb8528415646c7f09c248c15ba6c1fc0582adac454d9edb3b4e26e8[ALL] 02d7c9e36a4d31039d4b94a43246a4a5f0767f2f55ef9a359901c82c41fb1e4bff",
        "hex": "483045022100d63f1876269af1331987536413267dd33678dd4a8a17fd30014d89c2d3fe5f3f02201c43c2463fb8528415646c7f09c248c15ba6c1fc0582adac454d9edb3b4e26e8012102d7c9e36a4d31039d4b94a43246a4a5f0767f2f55ef9a359901c82c41fb1e4bff"
      },
      "sequence": 4294967295
    }
  ],
  "vout": [
    {
      "value": 1.29990000,
      "n": 0,
      "scriptPubKey": {
        "asm": "OP_DUP OP_HASH160 ecebae831bbfbd7827542a82da4dc136e1288f71 OP_EQUALVERIFY OP_CHECKSIG",
        "hex": "76a914ecebae831bbfbd7827542a82da4dc136e1288f7188ac",
        "reqSigs": 1,
        "type": "pubkeyhash",
        "addresses": [
          "n37g6n1JEsCGb9ctfoHT6epv8znnhtP522"
        ]
      }
    }
  ]
}


