# bch-hard-fork


* Blocksize increase to 32MB (32,000,000 bytes)
* Re-enabling of several opcodes

1.  OP_CAT 
2.  OP_SPLIT
3.  OP_AND 
4.  OP_OR 
5.  OP_XOR 
6.  OP_DIV 
7.  OP_MOD 
8.  OP_NUM2BIN 
9.  OP_BIN2NUM

<pre>
I also created a test x to test the OP_XOR,
the tx is [cfc269e66c39a66035d4cde07456a8ca911933433551f089146578b1425cea47](https://www.blocktrail.com/tBCC/tx/cfc269e66c39a66035d4cde07456a8ca911933433551f089146578b1425cea47)
the tx is pay to 5151865186518651865186518651865186518651865186518651865186518651865186518651865186518651865186518651865186518651865186518651865186,
the script result true, so anyone can redeem it.
</pre>
you can also see [this](http://35.184.152.173:3001/insight/tx/cfc269e66c39a66035d4cde07456a8ca911933433551f089146578b1425cea47)

```
decoderawtransaction 02000000010f368918b0b4d16cabbe878faf91e7b0832168bb4179844c1c114341b6729624000000006a473044022023348015853f6c65111a642e8b12cce3b26865b7dc9a5a8a85060cf073b4ab310220433e724545b6740860b27bbf87e0621503268e580d38f9c85e153d8b26d711b24121032c9f3c2ac952311abb57e70d54ddb061eb954267bfe6117bfdc72c50d3ae406dffffffff01e05c90410000000041515186518651865186518651865186518651865186518651865186518651865186518651865186518651865186518651865186518651865186518651865186518600000000
{
  "txid": "cfc269e66c39a66035d4cde07456a8ca911933433551f089146578b1425cea47",
  "hash": "cfc269e66c39a66035d4cde07456a8ca911933433551f089146578b1425cea47",
  "size": 231,
  "version": 2,
  "locktime": 0,
  "vin": [
    {
      "txid": "249672b64143111c4c847941bb682183b0e791af8f87beab6cd1b4b01889360f",
      "vout": 0,
      "scriptSig": {
        "asm": "3044022023348015853f6c65111a642e8b12cce3b26865b7dc9a5a8a85060cf073b4ab310220433e724545b6740860b27bbf87e0621503268e580d38f9c85e153d8b26d711b2[ALL|FORKID] 032c9f3c2ac952311abb57e70d54ddb061eb954267bfe6117bfdc72c50d3ae406d",
        "hex": "473044022023348015853f6c65111a642e8b12cce3b26865b7dc9a5a8a85060cf073b4ab310220433e724545b6740860b27bbf87e0621503268e580d38f9c85e153d8b26d711b24121032c9f3c2ac952311abb57e70d54ddb061eb954267bfe6117bfdc72c50d3ae406d"
      },
      "sequence": 4294967295
    }
  ],
  "vout": [
    {
      "value": 10.99980000,
      "n": 0,
      "scriptPubKey": {
        "asm": "1 1 OP_XOR 1 OP_XOR 1 OP_XOR 1 OP_XOR 1 OP_XOR 1 OP_XOR 1 OP_XOR 1 OP_XOR 1 OP_XOR 1 OP_XOR 1 OP_XOR 1 OP_XOR 1 OP_XOR 1 OP_XOR 1 OP_XOR 1 OP_XOR 1 OP_XOR 1 OP_XOR 1 OP_XOR 1 OP_XOR 1 OP_XOR 1 OP_XOR 1 OP_XOR 1 OP_XOR 1 OP_XOR 1 OP_XOR 1 OP_XOR 1 OP_XOR 1 OP_XOR 1 OP_XOR 1 OP_XOR 1 OP_XOR",
        "hex": "5151865186518651865186518651865186518651865186518651865186518651865186518651865186518651865186518651865186518651865186518651865186",
        "type": "nonstandard"
      }
    }
  ]
}

```

the redeem tx is below,is show me 「Attempted to use a disabled opcode」, but I can also to sign and propagate it.
[00969919204d288b68c846f06850baa9b02d365a7e8f9a262141cc099d05cd6f](http://35.184.152.173:3001/insight/tx/00969919204d288b68c846f06850baa9b02d365a7e8f9a262141cc099d05cd6f)

```
signrawtransaction "020000000147ea5c42b178651489f0513543331991caa85674e0cdd43560a6396ce669c2cf0000000000ffffffff01d03590410000000017a9142b718e29f493a57fc06720dce2d850aa362da4a48700000000" "[{\"txid\":\"cfc269e66c39a66035d4cde07456a8ca911933433551f089146578b1425cea47\",\"vout\":0,\"scriptPubKey\":\"5151865186518651865186518651865186518651865186518651865186518651865186518651865186518651865186518651865186518651865186518651865186\",\"redeemScript\":\"\",\"amount\":10.9997}]"
{
  "hex": "020000000147ea5c42b178651489f0513543331991caa85674e0cdd43560a6396ce669c2cf0000000000ffffffff01d03590410000000017a9142b718e29f493a57fc06720dce2d850aa362da4a48700000000",
  "complete": false,
  "errors": [
    {
      "txid": "cfc269e66c39a66035d4cde07456a8ca911933433551f089146578b1425cea47",
      "vout": 0,
      "scriptSig": "",
      "sequence": 4294967295,
      "error": "Attempted to use a disabled opcode"
    }
  ]
}

decoderawtransaction 020000000147ea5c42b178651489f0513543331991caa85674e0cdd43560a6396ce669c2cf0000000000ffffffff01d03590410000000017a9142b718e29f493a57fc06720dce2d850aa362da4a48700000000
{
  "txid": "00969919204d288b68c846f06850baa9b02d365a7e8f9a262141cc099d05cd6f",
  "hash": "00969919204d288b68c846f06850baa9b02d365a7e8f9a262141cc099d05cd6f",
  "size": 83,
  "version": 2,
  "locktime": 0,
  "vin": [
    {
      "txid": "cfc269e66c39a66035d4cde07456a8ca911933433551f089146578b1425cea47",
      "vout": 0,
      "scriptSig": {
        "asm": "",
        "hex": ""
      },
      "sequence": 4294967295
    }
  ],
  "vout": [
    {
      "value": 10.99970000,
      "n": 0,
      "scriptPubKey": {
        "asm": "OP_HASH160 2b718e29f493a57fc06720dce2d850aa362da4a4 OP_EQUAL",
        "hex": "a9142b718e29f493a57fc06720dce2d850aa362da4a487",
        "reqSigs": 1,
        "type": "scripthash",
        "addresses": [
          "bchtest:pq4hrr3f7jf62l7qvusdeckc2z4rvtdy5sxycpvxrg"
        ]
      }
    }
  ]
}
sendrawtransaction 020000000147ea5c42b178651489f0513543331991caa85674e0cdd43560a6396ce669c2cf0000000000ffffffff01d03590410000000017a9142b718e29f493a57fc06720dce2d850aa362da4a48700000000
00969919204d288b68c846f06850baa9b02d365a7e8f9a262141cc099d05cd6f
```
