#https://chain.so/tx/BTCTEST/b9c0b0bee666eb3b53ea501271c168da9a6a0527b66bfc87d8f1cbc5b1d7a2de
##pay-to-segwit-public-key-hash


output 0 [scriptPubKey] : OP_HASH160 e928cc1b9379ce4ce30f24b824c69a024924a1f7 OP_EQUAL
input  0 [scriptSig]    : 
     "scriptSig": {
        "asm": "0014c712299cbd34980b0d6b2dee8fe9a11fa816999e",
        "hex": "160014c712299cbd34980b0d6b2dee8fe9a11fa816999e"
      },
      "txinwitness": [
        "30450221009d8c2e9b0260437eb2ab50632d567f6aa72270e3ce182a806f2a6979acf0d6940220272a0ffe4c08c9f11c3033f88b254dea7c150b516910c4390f4c9895905925f901",
        "03302537fa9e3648ddbae25c068714c842b2540a1e9a5b3e38c628ba7471d33fa4"
      ],


bash cli.bash  getaddressinfo 2NEW4JdGwecPiaSMU84gMmmg7NwwNDADmZj
{
  "address": "2NEW4JdGwecPiaSMU84gMmmg7NwwNDADmZj",                    //pay to this address P2SH-P2SPKH
  "scriptPubKey": "a914e928cc1b9379ce4ce30f24b824c69a024924a1f787",    //pay to scriptPubKey=hash160(embedded.scriptPubKey) 
  "ismine": true,
  "iswatchonly": false,
  "isscript": true,
  "iswitness": false,
  "script": "witness_v0_keyhash",
  "hex": "0014c712299cbd34980b0d6b2dee8fe9a11fa816999e",              
  "pubkey": "03302537fa9e3648ddbae25c068714c842b2540a1e9a5b3e38c628ba7471d33fa4",
  "embedded": {
    "isscript": false,
    "iswitness": true,
    "witness_version": 0,
    "witness_program": "c712299cbd34980b0d6b2dee8fe9a11fa816999e",
    "pubkey": "03302537fa9e3648ddbae25c068714c842b2540a1e9a5b3e38c628ba7471d33fa4",
    "address": "tb1qcufzn89axjvqkrtt9hhgl6dpr75pdxv7gkxmn8",
    "scriptPubKey": "0014c712299cbd34980b0d6b2dee8fe9a11fa816999e"    //embedded.scriptPubKey=hash160(pubkey), when pay to this scriptPubkey means native-P2WPKH
  },
  "label": "\"\"",
  "timestamp": 1528290018,
  "hdkeypath": "m/0'/0'/12'",
  "hdseedid": "94a45e17cb46272e4d39e06ec00fc38c729b160a",
  "hdmasterkeyid": "94a45e17cb46272e4d39e06ec00fc38c729b160a",
  "labels": [
    {
      "name": "\"\"",
      "purpose": "receive"
    }
  ]
}

decoderawtransaction
02000000000101dea2d7b1c5cbf1d887fc6bb627056a9ada68c1711250ea533beb66e6beb0c0b90000000017160014c712299cbd34980b0d6b2dee8fe9a11fa816999effffffff01707dbf07000000001976a914ecebae831bbfbd7827542a82da4dc136e1288f7188ac024830450221009d8c2e9b0260437eb2ab50632d567f6aa72270e3ce182a806f2a6979acf0d6940220272a0ffe4c08c9f11c3033f88b254dea7c150b516910c4390f4c9895905925f9012103302537fa9e3648ddbae25c068714c842b2540a1e9a5b3e38c628ba7471d33fa400000000
{
  "txid": "175c6868e35b09e35722403e15a1afb7e48cbfe14b59c53caec1ece269a4f9cc",
  "hash": "e61bf2e9dfe2b58d124db05b1306022c8a1787f495b8c9e034bffe903460d6e4",
  "version": 2,
  "size": 218,
  "vsize": 136,
  "weight": 542,
  "locktime": 0,
  "vin": [
    {
      "txid": "b9c0b0bee666eb3b53ea501271c168da9a6a0527b66bfc87d8f1cbc5b1d7a2de",
      "vout": 0,
      "scriptSig": {
        "asm": "0014c712299cbd34980b0d6b2dee8fe9a11fa816999e",
        "hex": "160014c712299cbd34980b0d6b2dee8fe9a11fa816999e"
      },
      "txinwitness": [
        "30450221009d8c2e9b0260437eb2ab50632d567f6aa72270e3ce182a806f2a6979acf0d6940220272a0ffe4c08c9f11c3033f88b254dea7c150b516910c4390f4c9895905925f901",
        "03302537fa9e3648ddbae25c068714c842b2540a1e9a5b3e38c628ba7471d33fa4"
      ],
      "sequence": 4294967295
    }
  ],
  "vout": [
    {
      "value": 1.29990000,
      "n": 0,
      "scriptPubKey": {
        "asm": "OP_DUP OP_HASH160 ecebae831bbfbd7827542a82da4dc136e1288f71 OP_EQUALVERIFY OP_CHECKSIG",
        "hex": "76a914ecebae831bbfbd7827542a82da4dc136e1288f7188ac",
        "reqSigs": 1,
        "type": "pubkeyhash",
        "addresses": [
          "n37g6n1JEsCGb9ctfoHT6epv8znnhtP522"
        ]
      }
    }
  ]
}

